{
  "address": "0xD3c5Bbc86B8376f3f783db29BB4558507f686Fa4",
  "abi": [
    {
      "inputs": [
        {
          "internalType": "address",
          "name": "_dapiServer",
          "type": "address"
        }
      ],
      "stateMutability": "nonpayable",
      "type": "constructor"
    },
    {
      "inputs": [
        {
          "internalType": "bytes32",
          "name": "dapiName",
          "type": "bytes32"
        },
        {
          "internalType": "address",
          "name": "reader",
          "type": "address"
        }
      ],
      "name": "allowToReadDataFeedWithDapiNameFor30Days",
      "outputs": [],
      "stateMutability": "nonpayable",
      "type": "function"
    },
    {
      "inputs": [
        {
          "internalType": "bytes32",
          "name": "dataFeedId",
          "type": "bytes32"
        },
        {
          "internalType": "address",
          "name": "reader",
          "type": "address"
        }
      ],
      "name": "allowToReadDataFeedWithIdFor30Days",
      "outputs": [],
      "stateMutability": "nonpayable",
      "type": "function"
    },
    {
      "inputs": [],
      "name": "dapiServer",
      "outputs": [
        {
          "internalType": "address",
          "name": "",
          "type": "address"
        }
      ],
      "stateMutability": "view",
      "type": "function"
    }
  ],
  "transactionHash": "0x863e26b2a08a393f9644a0a18de198ed5b0d49242f9a1e7bd9ae15ae7d8f2a10",
  "args": [
    "0x8B0A67D060C86919Ae76Ca3FA69c68Ff98E85c3c"
  ],
  "numDeployments": 1,
  "solcInputHash": "0d3f5db0b79768341b726b6659931b08",
  "bytecode": "0x608060405234801561001057600080fd5b5060405161042c38038061042c83398101604081905261002f916100bc565b8061003981610040565b50506100ec565b6001600160a01b03811661009a5760405162461bcd60e51b815260206004820152601860248201527f64415049207365727665722061646472657373207a65726f0000000000000000604482015260640160405180910390fd5b600080546001600160a01b0319166001600160a01b0392909216919091179055565b6000602082840312156100ce57600080fd5b81516001600160a01b03811681146100e557600080fd5b9392505050565b610331806100fb6000396000f3fe608060405234801561001057600080fd5b50600436106100415760003560e01c80633b780fa4146100465780639f03866b1461005b578063c33a0c3a1461008a575b600080fd5b610059610054366004610227565b61009d565b005b60005461006e906001600160a01b031681565b6040516001600160a01b03909116815260200160405180910390f35b610059610098366004610227565b6100d3565b6100cf826040516020016100b391815260200190565b60405160208183030381529060405280519060200120826100d3565b5050565b600080546040517fd39c8968000000000000000000000000000000000000000000000000000000008152600481018590526001600160a01b0384811660248301529091169063d39c8968906044016040805180830381865afa15801561013d573d6000803e3d6000fd5b505050506040513d601f19601f820116820180604052508101906101619190610263565b50905060006101734262278d006102bc565b90508167ffffffffffffffff168167ffffffffffffffff161115610221576000546040517fa6b1b9a2000000000000000000000000000000000000000000000000000000008152600481018690526001600160a01b03858116602483015267ffffffffffffffff841660448301529091169063a6b1b9a290606401600060405180830381600087803b15801561020857600080fd5b505af115801561021c573d6000803e3d6000fd5b505050505b50505050565b6000806040838503121561023a57600080fd5b8235915060208301356001600160a01b038116811461025857600080fd5b809150509250929050565b6000806040838503121561027657600080fd5b825167ffffffffffffffff8116811461028e57600080fd5b602084015190925077ffffffffffffffffffffffffffffffffffffffffffffffff8116811461025857600080fd5b600082198211156102f6577f4e487b7100000000000000000000000000000000000000000000000000000000600052601160045260246000fd5b50019056fea2646970667358221220c0cc797d0402b35adbced11ab700233c478658d5bce56288657a7b4158fe2cee64736f6c634300080e0033",
  "devdoc": {
    "kind": "dev",
    "methods": {},
    "version": 1
  },
  "userdoc": {
    "kind": "user",
    "methods": {
      "dapiServer()": {
        "notice": "DapiServer contract address"
      }
    },
    "version": 1
  },
  "storageLayout": {
    "storage": [
      {
        "astId": 44,
        "contract": "contracts/SelfServeDapiServerWhitelister.sol:SelfServeDapiServerWhitelister",
        "label": "dapiServer",
        "offset": 0,
        "slot": "0",
        "type": "t_address"
      }
    ],
    "types": {
      "t_address": {
        "encoding": "inplace",
        "label": "address",
        "numberOfBytes": "20"
      }
    }
  }
}