{
  "address": "0x7432106a4367e6FfA52c75Cd3535b207C09dd34b",
  "abi": [
    {
      "inputs": [
        {
          "internalType": "address",
          "name": "rrpBeaconServerAddress",
          "type": "address"
        }
      ],
      "stateMutability": "nonpayable",
      "type": "constructor"
    },
    {
      "anonymous": false,
      "inputs": [
        {
          "indexed": true,
          "internalType": "address",
          "name": "previousOwner",
          "type": "address"
        },
        {
          "indexed": true,
          "internalType": "address",
          "name": "newOwner",
          "type": "address"
        }
      ],
      "name": "OwnershipTransferred",
      "type": "event"
    },
    {
      "anonymous": false,
      "inputs": [
        {
          "indexed": true,
          "internalType": "bytes32",
          "name": "beaconId",
          "type": "bytes32"
        },
        {
          "indexed": false,
          "internalType": "uint64",
          "name": "expirationTimestamp",
          "type": "uint64"
        }
      ],
      "name": "SetBeaconIdToExpirationTimestamp",
      "type": "event"
    },
    {
      "anonymous": false,
      "inputs": [
        {
          "indexed": true,
          "internalType": "bytes32",
          "name": "beaconId",
          "type": "bytes32"
        },
        {
          "indexed": false,
          "internalType": "bool",
          "name": "indefiniteWhitelistStatus",
          "type": "bool"
        }
      ],
      "name": "SetBeaconIdToIndefiniteWhitelistStatus",
      "type": "event"
    },
    {
      "anonymous": false,
      "inputs": [
        {
          "indexed": true,
          "internalType": "bytes32",
          "name": "beaconId",
          "type": "bytes32"
        },
        {
          "indexed": true,
          "internalType": "address",
          "name": "reader",
          "type": "address"
        },
        {
          "indexed": false,
          "internalType": "uint64",
          "name": "expirationTimestamp",
          "type": "uint64"
        },
        {
          "indexed": false,
          "internalType": "bool",
          "name": "indefiniteWhitelistStatus",
          "type": "bool"
        }
      ],
      "name": "WhitelistedReader",
      "type": "event"
    },
    {
      "inputs": [
        {
          "internalType": "bytes32",
          "name": "",
          "type": "bytes32"
        }
      ],
      "name": "beaconIdToExpirationTimestamp",
      "outputs": [
        {
          "internalType": "uint64",
          "name": "",
          "type": "uint64"
        }
      ],
      "stateMutability": "view",
      "type": "function"
    },
    {
      "inputs": [
        {
          "internalType": "bytes32",
          "name": "",
          "type": "bytes32"
        }
      ],
      "name": "beaconIdToIndefiniteWhitelistStatus",
      "outputs": [
        {
          "internalType": "bool",
          "name": "",
          "type": "bool"
        }
      ],
      "stateMutability": "view",
      "type": "function"
    },
    {
      "inputs": [],
      "name": "owner",
      "outputs": [
        {
          "internalType": "address",
          "name": "",
          "type": "address"
        }
      ],
      "stateMutability": "view",
      "type": "function"
    },
    {
      "inputs": [],
      "name": "renounceOwnership",
      "outputs": [],
      "stateMutability": "nonpayable",
      "type": "function"
    },
    {
      "inputs": [],
      "name": "rrpBeaconServer",
      "outputs": [
        {
          "internalType": "address",
          "name": "",
          "type": "address"
        }
      ],
      "stateMutability": "view",
      "type": "function"
    },
    {
      "inputs": [
        {
          "internalType": "bytes32",
          "name": "beaconId",
          "type": "bytes32"
        },
        {
          "internalType": "uint64",
          "name": "expirationTimestamp",
          "type": "uint64"
        }
      ],
      "name": "setBeaconIdToExpirationTimestamp",
      "outputs": [],
      "stateMutability": "nonpayable",
      "type": "function"
    },
    {
      "inputs": [
        {
          "internalType": "bytes32",
          "name": "beaconId",
          "type": "bytes32"
        },
        {
          "internalType": "bool",
          "name": "indefiniteWhitelistStatus",
          "type": "bool"
        }
      ],
      "name": "setBeaconIdToIndefiniteWhitelistStatus",
      "outputs": [],
      "stateMutability": "nonpayable",
      "type": "function"
    },
    {
      "inputs": [
        {
          "internalType": "address",
          "name": "newOwner",
          "type": "address"
        }
      ],
      "name": "transferOwnership",
      "outputs": [],
      "stateMutability": "nonpayable",
      "type": "function"
    },
    {
      "inputs": [
        {
          "internalType": "bytes32",
          "name": "beaconId",
          "type": "bytes32"
        },
        {
          "internalType": "address",
          "name": "reader",
          "type": "address"
        }
      ],
      "name": "whitelistReader",
      "outputs": [],
      "stateMutability": "nonpayable",
      "type": "function"
    }
  ],
  "transactionHash": "0x1e642679c297fd5fbbccdab2b37c2bf4c9054a72f5aef213e9992ebcf0dbf87d",
  "args": [
    "0x2cFda716b751eb406C5124C6E4428F2AEA453D96"
  ],
  "numDeployments": 1,
  "solcInputHash": "9206a9d31ccb6ccc4502c8b3f50e3144",
  "bytecode": "0x608060405234801561001057600080fd5b5060405161081d38038061081d83398101604081905261002f91610107565b610038336100b7565b6001600160a01b0381166100925760405162461bcd60e51b815260206004820152601c60248201527f527270426561636f6e5365727665722061646472657373207a65726f00000000604482015260640160405180910390fd5b600180546001600160a01b0319166001600160a01b0392909216919091179055610137565b600080546001600160a01b038381166001600160a01b0319831681178455604051919092169283917f8be0079c531659141344cd1fd0a4f28419497f9722a3daafe3b4186f6b6457e09190a35050565b60006020828403121561011957600080fd5b81516001600160a01b038116811461013057600080fd5b9392505050565b6106d7806101466000396000f3fe608060405234801561001057600080fd5b50600436106100935760003560e01c80638da5cb5b116100665780638da5cb5b146101305780639da4543b14610155578063ad2245a914610168578063f2fde38b1461017b578063f4ac6c371461018e57600080fd5b806318c79ad1146100985780634f65fd8e146100e05780635c6f7656146100f5578063715018a614610128575b600080fd5b6100c26100a6366004610582565b60026020526000908152604090205467ffffffffffffffff1681565b60405167ffffffffffffffff90911681526020015b60405180910390f35b6100f36100ee3660046105b7565b6101a1565b005b610118610103366004610582565b60036020526000908152604090205460ff1681565b60405190151581526020016100d7565b6100f3610356565b6000546001600160a01b03165b6040516001600160a01b0390911681526020016100d7565b60015461013d906001600160a01b031681565b6100f36101763660046105e3565b61038c565b6100f3610189366004610618565b61040e565b6100f361019c36600461063a565b6104a9565b60008281526002602090815260408083205460039092529091205467ffffffffffffffff9091169060ff16428211806101d75750805b61021b5760405162461bcd60e51b815260206004820152601060248201526f10d85b9b9bdd081dda1a5d195b1a5cdd60821b60448201526064015b60405180910390fd5b60015460405163074db3d760e21b8152600481018690526001600160a01b03858116602483015267ffffffffffffffff8516604483015290911690631d36cf5c90606401600060405180830381600087803b15801561027957600080fd5b505af115801561028d573d6000803e3d6000fd5b50506001546040516319bb73e160e11b8152600481018890526001600160a01b03878116602483015285151560448301529091169250633376e7c29150606401600060405180830381600087803b1580156102e757600080fd5b505af11580156102fb573d6000803e3d6000fd5b50506040805167ffffffffffffffff8616815284151560208201526001600160a01b03871693508792507f2b028e8c011212661e5be2aa46f2ce5cf9e0d4fd519ed16bdbf0e26d46d19ba1910160405180910390a350505050565b6000546001600160a01b031633146103805760405162461bcd60e51b81526004016102129061066c565b61038a6000610532565b565b6000546001600160a01b031633146103b65760405162461bcd60e51b81526004016102129061066c565b600082815260036020908152604091829020805460ff1916841515908117909155915191825283917f4ba089eb0a1d5b414d8286000f8c81baf6bcf8f416259b3fd464cb8881c8a32091015b60405180910390a25050565b6000546001600160a01b031633146104385760405162461bcd60e51b81526004016102129061066c565b6001600160a01b03811661049d5760405162461bcd60e51b815260206004820152602660248201527f4f776e61626c653a206e6577206f776e657220697320746865207a65726f206160448201526564647265737360d01b6064820152608401610212565b6104a681610532565b50565b6000546001600160a01b031633146104d35760405162461bcd60e51b81526004016102129061066c565b600082815260026020908152604091829020805467ffffffffffffffff191667ffffffffffffffff8516908117909155915191825283917f3bdd5f47da58c7af5ab9a1aa3398a7d23d7e16fddd14da7f0dc91a91428ac1d19101610402565b600080546001600160a01b038381166001600160a01b0319831681178455604051919092169283917f8be0079c531659141344cd1fd0a4f28419497f9722a3daafe3b4186f6b6457e09190a35050565b60006020828403121561059457600080fd5b5035919050565b80356001600160a01b03811681146105b257600080fd5b919050565b600080604083850312156105ca57600080fd5b823591506105da6020840161059b565b90509250929050565b600080604083850312156105f657600080fd5b823591506020830135801515811461060d57600080fd5b809150509250929050565b60006020828403121561062a57600080fd5b6106338261059b565b9392505050565b6000806040838503121561064d57600080fd5b82359150602083013567ffffffffffffffff8116811461060d57600080fd5b6020808252818101527f4f776e61626c653a2063616c6c6572206973206e6f7420746865206f776e657260408201526060019056fea26469706673582212200b231c4744b65cc22c4533574af9ae94ed38eb24f68590c9214c44300977dd2564736f6c63430008090033",
  "devdoc": {
    "details": "The SelfServeRrpBeaconServerWhitelister contract has the WhitelistExpirationSetterRole and the IndefiniteWhitelisterRole of the RrpBeaconServer contract. The deployer of this contract can specify the beaconIds for which readers can whitelist themselves. The deployer (also the owner) can also add new beaconIds later for readers to self whitelist themselves.",
    "kind": "dev",
    "methods": {
      "constructor": {
        "params": {
          "rrpBeaconServerAddress": "The RrpBeaconServer contract to whitelist readers"
        }
      },
      "owner()": {
        "details": "Returns the address of the current owner."
      },
      "renounceOwnership()": {
        "details": "Leaves the contract without owner. It will not be possible to call `onlyOwner` functions anymore. Can only be called by the current owner. NOTE: Renouncing ownership will leave the contract without an owner, thereby removing any functionality that is only available to the owner."
      },
      "setBeaconIdToExpirationTimestamp(bytes32,uint64)": {
        "params": {
          "beaconId": "The beaconId to set an expiration timestamp for",
          "expirationTimestamp": "The expiration timestamp for the beaconId"
        }
      },
      "setBeaconIdToIndefiniteWhitelistStatus(bytes32,bool)": {
        "params": {
          "beaconId": "The beaconId to set an indefinite whitelist status for",
          "indefiniteWhitelistStatus": "The indefinite whitelist status for the beaconId"
        }
      },
      "transferOwnership(address)": {
        "details": "Transfers ownership of the contract to a new account (`newOwner`). Can only be called by the current owner."
      },
      "whitelistReader(bytes32,address)": {
        "params": {
          "beaconId": "The beaconId to whitelist",
          "reader": "The reader to whitelist on the beaconId"
        }
      }
    },
    "title": "Contract that allows to whitlist readers on the RrpBeaconServer",
    "version": 1
  },
  "userdoc": {
    "kind": "user",
    "methods": {
      "setBeaconIdToExpirationTimestamp(bytes32,uint64)": {
        "notice": "Adds a new beaconId with an expiration timestamp that can be whitelisted by readers"
      },
      "setBeaconIdToIndefiniteWhitelistStatus(bytes32,bool)": {
        "notice": "Adds a new beaconId with an indefinite whitelist status that can be whitelisted by readers indefinetly"
      },
      "whitelistReader(bytes32,address)": {
        "notice": "Whitelists a reader on the RrpBeaconServer with an expiration timestamp"
      }
    },
    "version": 1
  },
  "storageLayout": {
    "storage": [
      {
        "astId": 3525,
        "contract": "contracts/SelfServeRrpBeaconServerWhitelister.sol:SelfServeRrpBeaconServerWhitelister",
        "label": "_owner",
        "offset": 0,
        "slot": "0",
        "type": "t_address"
      },
      {
        "astId": 4294,
        "contract": "contracts/SelfServeRrpBeaconServerWhitelister.sol:SelfServeRrpBeaconServerWhitelister",
        "label": "rrpBeaconServer",
        "offset": 0,
        "slot": "1",
        "type": "t_address"
      },
      {
        "astId": 4298,
        "contract": "contracts/SelfServeRrpBeaconServerWhitelister.sol:SelfServeRrpBeaconServerWhitelister",
        "label": "beaconIdToExpirationTimestamp",
        "offset": 0,
        "slot": "2",
        "type": "t_mapping(t_bytes32,t_uint64)"
      },
      {
        "astId": 4302,
        "contract": "contracts/SelfServeRrpBeaconServerWhitelister.sol:SelfServeRrpBeaconServerWhitelister",
        "label": "beaconIdToIndefiniteWhitelistStatus",
        "offset": 0,
        "slot": "3",
        "type": "t_mapping(t_bytes32,t_bool)"
      }
    ],
    "types": {
      "t_address": {
        "encoding": "inplace",
        "label": "address",
        "numberOfBytes": "20"
      },
      "t_bool": {
        "encoding": "inplace",
        "label": "bool",
        "numberOfBytes": "1"
      },
      "t_bytes32": {
        "encoding": "inplace",
        "label": "bytes32",
        "numberOfBytes": "32"
      },
      "t_mapping(t_bytes32,t_bool)": {
        "encoding": "mapping",
        "key": "t_bytes32",
        "label": "mapping(bytes32 => bool)",
        "numberOfBytes": "32",
        "value": "t_bool"
      },
      "t_mapping(t_bytes32,t_uint64)": {
        "encoding": "mapping",
        "key": "t_bytes32",
        "label": "mapping(bytes32 => uint64)",
        "numberOfBytes": "32",
        "value": "t_uint64"
      },
      "t_uint64": {
        "encoding": "inplace",
        "label": "uint64",
        "numberOfBytes": "8"
      }
    }
  }
}